:100000000C9478000C9499000C9499000C9499002D
:100010000C9499000C9499000C9499000C949900FC
:100020000C9499000C9499000C9499000C949900EC
:100030000C9499000C9499000C9499000C949900DC
:100040000C9499000C94A1000C9499000C949900C4
:100050000C9499000C9463010C9499000C949900F1
:100060000C9499000C9499000C9499000C949900AC
:100070000C9499000C9499000C9499000C9499009C
:100080000C9499000C9499000C9499000C9499008C
:100090000C9499000C9499000C9499000C9499007C
:1000A0000C9499000C9499000C9499000C9499006C
:1000B0000C9499000C9499000C9499000C9499005C
:1000C0000C9499000C9499000C9499000C9499004C
:1000D0000C9499000C9499000C9499000C9499003C
:1000E0000C9499000C949B000C94B7060C94B206E7
:1000F00011241FBECFEFD1E2DEBFCDBF00E00CBFA9
:1001000013E0A0E0B2E0E0EDF9E300E00BBF02C0D5
:1001100007900D92AA3CB107D9F726E2AAECB3E00A
:1001200001C01D92A33BB207E1F70E9473170C9424
:10013000E61C0C9400007894822D932DE42DF52D6F
:1001400009941F920F920FB60F9211240BB60F92C3
:100150002F933F938F939F93AF93BF93EF93FF930F
:1001600090917024992369F0E7E7F3E280E0238D12
:10017000348D368F258F148E138E8F5F7F96891363
:10018000F6CF8091712490917224A0917324B09144
:1001900074248C599F4FAF4FBF4F8093712490931D
:1001A0007224A0937324B093742480917524909149
:1001B0007624A0917724B091782480937924909329
:1001C0007A24A0937B24B0937C24109275241092FF
:1001D00076241092772410927824FF91EF91BF91AA
:1001E000AF919F918F913F912F910F900BBE0F90E8
:1001F0000FBE0F901F901895EEE6F0E080818260B0
:10020000808384B5826084BD85B5826085BD8AE5C2
:1002100087BD89E09DE39093890080938800EFE695
:10022000F0E0808182608083E1E8F0E080818D6091
:1002300080830895E0EBF0E0808183628083E1EBCE
:10024000F0E0808181608083E1E0F1E08081806482
:10025000808308952F923F924F925F926F927F9288
:100260008F929F92AF92BF92CF92DF92EF92FF92C6
:100270000F931F93CF93DF93FF27EDE50081FF27B7
:10028000EEE51081E62FF72F01931083E82FF92F69
:1002900001911081FF27EDE50083FF27EEE5108334
:1002A000DF91CF911F910F91FF90EF90DF90CF9052
:1002B000BF90AF909F908F907F906F905F904F9086
:1002C0003F902F9008951F920F920FB60F92112416
:1002D0000BB60F920F931F932F933F934F935F9300
:1002E0006F937F938F939F93AF93BF93CF93DF933E
:1002F000EF93FF93F89430917024332391F0E7E764
:10030000F3E220E042E0818D928D009731F0019779
:10031000928F818F892B09F4408F2F5F7F96231353
:10032000F2CF789400916F248091AE23823009F44B
:1003300063C0C0917024D0E081E090E01FE101969D
:10034000BE010E94C717189F9001199F300D1124FC
:10035000F901E958FC4D408D423089F7E82F295FBB
:100360003F4F40917524509176246091772470918D
:1003700078244F5F5F4F6F4F7F4F409375245093AA
:1003800076246093772470937824E0936F246FE150
:10039000689FF001699FF00D1124E958FC4D838D91
:1003A000948D0196948F838F81E0808F609FB00140
:1003B0001124FB01E958FC4D82E0808F62587C4D8E
:1003C000C90189589C4D0E942A01FF91EF91DF914C
:1003D000CF91BF91AF919F918F917F916F915F91DD
:1003E0004F913F912F911F910F910F900BBE0F9046
:1003F0000FBE0F901F90189526E230E0E1E081E0FB
:1004000090E0AFCFF8940E94FC0010926F241092FD
:1004100070241092752410927624109277241092F2
:1004200078241092792410927A2410927B241092CE
:100430007C241092712410927224109273241092D2
:1004400074240895AF92BF92DF92EF92FF920F93C0
:100450001F93CF93DF938B01D42EE52E4091702410
:10046000483009F44EC051E0540F509370245FE1BE
:10047000F52EF49EF0011124EF01C958DC4DDE0188
:100480004D93698311961C9342E0488F1A8E198E02
:100490001C8E1B8E1E8E1D8E245D3F4FA90170E0A9
:1004A00060E04B835C836D837E83BC01CF018C57FE
:1004B0009C4D0E94F419AB80BC80B50181E090E0B6
:1004C0000E94AC189C878B87FC01EA0DFB1DFA8704
:1004D000E987BC978BE990E0858B948BD28AE18A7F
:1004E000008B1787809170248150990BF89ED00162
:1004F000F99EB00D1124A958BC4D1896FC93EE93AB
:100500001797DF91CF911F910F91FF90EF90DF90A0
:10051000BF90AF900895CF93DF931F921F92CDB7F6
:10052000DEB70E94FC007894BE016F5F7F4F8EE7BC
:1005300093E20E942A010F900F90DF91CF910895CE
:10054000CF93DF938091AE238230B9F0C0917024B5
:10055000D0E081E090E03FE10196BE010E94C71724
:10056000389FF001399FF00D1124E958FC4D208D82
:10057000223091F7DF91CF91089581E0DF91CF9103
:100580000895F894482F50E0EFE1E49FD001E59FF3
:10059000B00D1124A958BC4D5B962D913C915C97F0
:1005A0002F5F3F4F5C963C932E935B9760916F2437
:1005B000E69FF0011124E958FC4D908D913011F423
:1005C00092E0908F80936F249FE1949FF001959F1C
:1005D000F00D1124E958FC4D21E0208F699FB001F6
:1005E000112462587C4D899FC001112482589C4D72
:1005F0000E942A0178940895CF93DF93F894809114
:10060000AE238230D1F0C0917024D0E081E090E040
:100610003FE10196BE010E94C717389FF001399F44
:10062000F00D1124E958FC4D208D223091F70E94E5
:10063000C1027894DF91CF91089581E00E94C102B8
:100640007894DF91CF910895F8940E94FC027894F9
:10065000089580916F240895F894E0916F242FE11C
:10066000E29FF0011124E958FC4D928F818F83E0C5
:10067000808F0E94FC0278940895F8943091702441
:10068000332391F0E7E7F3E220E042E0818D928DA1
:10069000009731F00197928F818F892B09F4408F59
:1006A0002F5F7F962313F2CF7894089582E0809392
:1006B000C0001092C50080E18093C400E1ECF0E03E
:1006C00080818861808308958091C000881F882779
:1006D000881F08958091C00087FF03C08091C600E5
:1006E00008958FEF08959091C10095FDFCCF9091F2
:1006F000C00095FFF8CF8093C60081E00895FC010B
:100700002081222371F081919091C10095FDFCCF51
:100710009091C00095FFF8CF8093C6008081811131
:10072000F2CF08950F931F93CF93DF93382F292F84
:10073000C5E0D0E040E0E0E1F7E20AE010E0832F1E
:10074000922FBF010E94B317611110C0413071F0A8
:10075000382F292FCF01B8010E94C717FB0121971D
:1007600071F7DF91CF911F910F910895605D2091F6
:10077000C10025FDFCCF2091C00025FFF8CF60937C
:10078000C60041E0E5CF5F926F927F928F929F9279
:10079000AF92BF92CF92DF92EF92FF920F931F938F
:1007A000CF93DF933B01D82FC92F0AE010E0512CE3
:1007B000C12C8AECD82E8AE9E82E8BE3F82E9AE039
:1007C000892E912CA12CB12C11C031E05316B9F017
:1007D0003B01D82FC92FC701B601A50194010E9482
:1007E000DB1769017A0101501109B9F0B3018D2FAE
:1007F0009C2FA70196010E94DB17222331F3205D75
:100800003091C10035FDFCCF3091C00035FFF8CFED
:100810002093C60055245394DBCFDF91CF911F91D5
:100820000F91FF90EF90DF90CF90BF90AF909F908F
:100830008F907F906F905F900895BC0144E050E0EE
:1008400080E0272F22952F70C1F02A30D0F0295C4C
:100850009091C10095FDFCCF8091C00085FFF8CF3D
:100860002093C60081E062957295707F7627607F45
:1008700076274150510929F708958130A1F720E3E7
:10088000E7CF205DE5CFAB01BC0128E030E0F0E030
:10089000DB01CA01ECE1B695A79597958795EA9596
:1008A000D1F7E82F882329F190E3980FEA3010F070
:1008B00097E3980F8091C10085FDFCCF8091C00027
:1008C00085FFF8CF9093C600F1E0440F551F661FD7
:1008D000771F440F551F661F771F440F551F661F54
:1008E000771F440F551F661F771F2150310981F66E
:1008F0000895F13051F790E3DDCF9091C10095FD5F
:10090000FCCF9091C00095FFF8CF9BE19093C6007B
:100910009091C10095FDFCCF9091C00095FFF8CF5C
:100920009BE59093C600843608F4AAC029E2829F12
:10093000212D112422952F70205D9091C10095FDED
:10094000FCCF9091C00095FFF8CF2093C60099E2AC
:10095000899F912D112492959F70282F34E6939FA3
:10096000201911249DEC299F212D112426952695CF
:100970002695205D9091C10095FDFCCF9091C0001F
:1009800095FFF8CF2093C6009DEC899F912D1124EF
:10099000969596959695292F220F220F920F990FD3
:1009A000891B90E3980F8091C10085FDFCCF809159
:1009B000C00085FFF8CF9093C6008091C10085FDEF
:1009C000FCCF8091C00085FFF8CF8BE38093C600F9
:1009D000643608F452C099E2699F912D11249295D2
:1009E0009F70905D8091C10085FDFCCF8091C0001B
:1009F00085FFF8CF9093C60089E2689F812D11246E
:100A000082958F70962F24E6829F901911248DEC89
:100A1000989F912D1124969596959695905D80912D
:100A2000C10085FDFCCF8091C00085FFF8CF909379
:100A3000C6008DEC689F812D11248695869586953C
:100A4000982F990F990F890F880F681B605D80910F
:100A5000C10085FDFCCF8091C00085FFF8CF609379
:100A6000C6008091C10085FDFCCF8091C00085FF4C
:100A7000F8CF86E68093C60008956A30D0F2BCCFE6
:100A80008A3008F481CF63CF9091C10095FDFCCFEF
:100A90009091C00095FFF8CF9BE19093C600909194
:100AA000C10095FDFCCF9091C00095FFF8CF9BE56C
:100AB0009093C6002DEC829F212D1124269526951A
:100AC0002695205D9091C10095FDFCCF9091C000CE
:100AD00095FFF8CF2093C6009DEC899F912D11249E
:100AE000969596959695292F220F220F920F990F82
:100AF000891B90E3980F8091C10085FDFCCF809108
:100B0000C00085FFF8CF9093C6008091C10085FD9D
:100B1000FCCF8091C00085FFF8CF8DE68093C600A2
:100B200008958091C10085FDFCCF8091C00085FFB4
:100B3000F8CF8BE18093C6008091C10085FDFCCF8A
:100B40008091C00085FFF8CF8BE58093C60080912F
:100B5000C10085FDFCCF8091C00085FFF8CF82E306
:100B60008093C6008091C10085FDFCCF8091C000BC
:100B700085FFF8CF8AE48093C6000895DC011996BA
:100B80008C9119971896EC911897E80FE770EA0F77
:100B9000FB2FF11D60838F5F19968C930895FC01E4
:100BA000208530E0DC01A20FB31F8C912F5F3F4FF7
:100BB0002770332720879185915091870895FC01F4
:100BC000F89481E080831186128678940895CF93FB
:100BD000DF93EC01F8948881811117C090916F2404
:100BE0008FE1989FF0011124E958FC4D84E0808F3B
:100BF0008A85E985E80FE770EC0FFD2FF11D9183E1
:100C00008F5F8A870E94FC02888181508883789454
:100C1000DF91CF910895FC01F89480818F5F8083EC
:100C200092859923C1F0218530E0DF01A20FB31F27
:100C300011968C912F5F3F4F27703327218791505A
:100C400092879FE1899FF0011124E958FC4D92E0C1
:100C5000908F0E94C10278940895FC01F8947183EA
:100C600060831286138678940895CF93DF93EC0106
:100C7000F894888199810097C1F490916F248FE155
:100C8000989FF0011124E958FC4D84E0808F8B85FA
:100C9000EA85E80FE770EC0FFD2FF11D92838F5F5F
:100CA0008B870E94FC0288819981019799838883B0
:100CB0007894DF91CF910895FC01F894808191811F
:100CC00001969183808393859923C1F0228530E03A
:100CD000DF01A20FB31F12968C912F5F3F4F277039
:100CE00033272287915093879FE1899FF001112438
:100CF000E958FC4D92E0908F0E94C10278940895CB
:100D0000FC01F89480819181019691838083938581
:100D1000992331F1228530E0DF01A20FB31F129633
:100D20008C912F5F3F4F27703327228730916F249C
:100D30009150920F9770E90FF11D3283EFE1E89F18
:100D4000D0011124A958BC4D92E058969C93E39F82
:100D5000F0011124E958FC4D94E0908F0E94C102EB
:100D60007894089586E092E00E947F03FBCF109272
:100D7000712410927224109273241092742484E6C9
:100D8000882E912CA12CB12C60E081E00E947D0482
:100D900088E092E00E947F03609171247091722438
:100DA0008091732490917424A50194010E94DB1713
:100DB000CA01B9010E94C30360E082E00E947D0481
:100DC00086E192E00E947F036091792470917A24F9
:100DD00080917B2490917C240E94C30384E493E05F
:100DE0000E947F0360E083E00E947D0487E292E03E
:100DF0000E947F038091702490E00E94920360E043
:100E000084E00E947D048BE392E00E947F03809146
:100E10006F2490E00E94920380917024882309F44B
:100E2000CFC0C7E7D3E216E0C12CD12C760179C040
:100E3000843009F4B0C0813009F4B5C0833009F4BE
:100E4000BAC060E084E0810F0E947D0480EB92E0F4
:100E50000E947F038D8D9E8D0E94920384E493E017
:100E60000E947F0360E085E0810F0E947D048CEB8F
:100E700092E00E947F0389819A810E94920360E040
:100E800086E0810F0E947D0486ED92E00E947F0340
:100E900089859A852F813885821B930B0E94920346
:100EA00060E087E0810F0E947D0484EE92E00E9462
:100EB0007F038B819C810E94920360E088E0810F18
:100EC0000E947D0481EF92E00E947F038F819885CC
:100ED0000E94920360E089E0810F0E947D0481E01E
:100EE00093E00E947F0389859A850E94920389E09E
:100EF00093E00E947F038B859C850E9492038FEF75
:100F0000C81AD80AE80AF80A155F6F96809170240B
:100F100090E0B0E0A0E0C816D906EA06FB0608F0AB
:100F20004FC060E0812F0E947D048FE492E00E9418
:100F30007F03C6010E94920360E081E0810F0E945E
:100F40007D0483E492E00E947F03888190E00E9408
:100F5000920360E082E0810F0E947D0487E592E0C9
:100F60000E947F03CE010D960E947F0360E083E024
:100F7000810F0E947D0485E692E00E947F03888DA8
:100F8000823009F055CF85E792E00E947F03888D7B
:100F9000843009F050CF82E892E00E947F03888D70
:100FA000813009F04BCF81E992E00E947F03888D68
:100FB000833009F046CF80EA92E00E947F0341CF60
:100FC00085E090E00E942C03DFCECF92DF92EF927B
:100FD000FF92109273231092742310927523109233
:100FE0007623E0917D24F0917E24EE0FFF1FEE0F1B
:100FF000FF1FE153FC4FC080D180E280F3804FE0BF
:1010000053E2C701B6010E94F00E45E854E2C70161
:10101000B601FF90EF90DF90CF900C94780F609125
:101020007D2470917E2480917F24909180246F5F35
:101030007F4F8F4F9F4F2091812430918224409188
:101040008324509184240E94DB1760937D24709345
:101050007E2480937F24909380240C94E5078091D4
:101060007D2490917E24A0917F24B09180240097CC
:10107000A105B10569F00197A109B10980937D240B
:1010800090937E24A0937F24B09380240C94E50752
:101090008091812490918224A0918324B091842412
:1010A0000197A109B109EACFCF92DF92EF92FF92A7
:1010B0000E94C01010927D2410927E2410927F24F2
:1010C000109280241092732310927423109275232F
:1010D000109276236FEC73E081E894E20E94601432
:1010E000E0917D24F0917E24EE0FFF1FEE0FFF1F95
:1010F000E153FC4FC080D180E280F3804FE053E2A7
:10110000C701B6010E94F00E45E854E2C701B601DE
:10111000FF90EF90DF90CF900C94780F0F931F9378
:10112000CF93DF931F92CDB7DEB720917323309119
:1011300074234091752350917623E0917D24F091A2
:101140007E24EE0FFF1FEE0FFF1FE153FC4F608167
:101150007181828193818E010F5F1F4F0E94A00FCA
:101160001981612F89E894E20E941A0D019651F4C9
:10117000612F89E894E20E941A0D81E090E00E94BC
:101180002C03F6CF0F90DF91CF911F910F9108950F
:101190000E946403813061F40E946A038E36C1F1BB
:1011A0008037B1F70E942F080E9464038130A1F3B9
:1011B00060E081E00E947D0489E293E00E947F0369
:1011C0008FE093E20E947F0360E082E00E947D0452
:1011D00085E393E00E947F038091732390917423B1
:1011E0000E94920382E493E00E947F0360E083E028
:1011F0000E947D0486E493E00E947F038091852411
:10120000909186240E94920382E493E00C947F03E1
:101210000E940F08BDCF87E593E00E947F03FBCFBC
:101220008FEF8EBD80919526909196269C012F5F21
:101230003F4F30939626209395268130924098F424
:101240004FEF0DB407FEFDCF4EBD809195269091D6
:1012500096269C012F5F3F4F30939626209395262C
:101260008130924070F30DB407FEFDCF289A8FEFC6
:101270008EBD0DB407FEFDCF1092CC030895809370
:10128000CE0308958093CE036093CD030895CF934A
:10129000C82F8091CC0381110E941009C093CB0309
:1012A000CF9108958091CA0308958093CA03089549
:1012B000CF92DF92EF92FF92CF93C82F6A017B010A
:1012C0008091CC0381110E941009289888EC97E93D
:1012D000A4E0B0E03FEF3EBD0DB407FEFDCF2EB55C
:1012E0002F3F41F02AE02A95F1F700C00197A109AC
:1012F000B10989F78C2F80648EBD0DB407FEFDCF38
:1013000088E190E0B701A601082E04C076956795A4
:10131000579547950A94D2F74EBD0DB407FEFDCF01
:101320000897883F2FEF920769F785E9CC2319F0DA
:1013300087E8C830B9F48EBD0DB407FEFDCF90E04C
:101340002FEF2EBD0DB407FEFDCF8EB587FF04C075
:101350009F3F11F09F5FF5CFCF91FF90EF90DF900F
:10136000CF9008958FEFE7CF8F929F92AF92BF9269
:10137000EF92FF920F931F93CF93DF93EA017901CE
:101380002091CC03222371F0809091269090922698
:10139000A0909326B090942686169706A806B906C4
:1013A00009F44BC060939126709392268093932604
:1013B000909394262091CA03233039F029E0660FD8
:1013C000771F881F991F2A95D1F7AB01BC0181E1D6
:1013D0000E94580948EC57E964E070E02FEF811152
:1013E00014C02EBD0DB407FEFDCF9EB59F3FE1F4A6
:1013F0009AE09A95F1F700C04150510961097109CD
:1014000081F79DE09093CE0304C083E08093CE03E8
:1014100080E0DF91CF911F910F91FF90EF90BF90EF
:10142000AF909F908F9008959E3F09F45FC020E198
:101430002093CE039093CD03ECCF2091952630914D
:1014400096264217530708F4ADCF8FEF8EBD8091DB
:101450009526909196268C179D0788F42FEF0DB452
:1014600007FEFDCF2EBD8091952690919626019680
:1014700090939626809395268C179D0780F3A8015C
:101480004150510981F0F70198012E0D3F1D215067
:1014900031099FEF0DB407FEFDCF8EB581939EBD40
:1014A000E217F307B9F70DB407FEFDCF8EB5F701CC
:1014B000E40FF51F80838091952690919626080F62
:1014C000191F10939626009395268091CB038823AD
:1014D00019F00115124020F08091CC03811102C057
:1014E00081E097CF0E94100981E093CF1092962659
:1014F0001092952681E08093CC03A7CF0F931F9382
:101500009A0100E012E050E040E00E94B4091F910F
:101510000F910895CF92DF92EF92FF921F93CF9396
:10152000DF93182F209A289A229A219A83E58CBD5E
:101530008AE090E02FEF2EBD0DB407FEFDCF01979E
:10154000D1F7289881E092E02FEF2EBD0DB407FE71
:10155000FDCF3EB50197C9F7DBE040E050E0BA01AE
:1015600080E00E945809C82F813089F0D150A9F736
:1015700081E08093CE03C093CD03C0E08C2FDF9138
:10158000CF911F91FF90EF90DF90CF9008954AEA9E
:1015900051E060E070E088E00E945809813009F471
:1015A00040C082FF51C0C093CA0388E6C82E88E8B5
:1015B000D82E8EE1E82EF12C07C081E0C81AD108A0
:1015C000E108F10809F462C08AE08A95F1F700C0E9
:1015D00040E050E0BA0187E30E9458098091CA03B5
:1015E00040E050E0BA01823021F440E050E060E099
:1015F00070E489E20E9458098111DFCF8091CA030B
:10160000823041F18CB58C7F8CBD111103C08DB53A
:1016100081608DBD289A8FEF8EBD0DB407FEFDCF82
:10162000ADCF84E090E03FEF3EBD0DB407FEFDCFAF
:101630002EB50197C9F72A3A71F189E08093CE035C
:101640002093CD03C0E09ACF92E09093CE03809395
:10165000CD03ABCF40E050E0BA018AE30E945809C5
:10166000811121C08FEF8EBD0DB407FEFDCF8EB569
:10167000807C803CA1F083E090E02FEF2EBD0DB484
:1016800007FEFDCF3EB50197C9F7BCCF86E080933A
:10169000CE03C0E073CF82E08093CA0386CF83E09D
:1016A0008093CA03E8CF85E08093CE03C0E066CF85
:1016B0000F931F930115110579F0F801E40FF51F41
:1016C000E130F24028F40E94B4091F910F9108956F
:1016D00080E01F910F91089581E01F910F9108956F
:1016E0008091CC0381110C9410090895CF93DF935E
:1016F000D62FC72F40E050E0BA010E94580948ECAD
:1017000057E964E070E02FEF811114C02EBD0DB4D5
:1017100007FEFDCF9EB59F3FA1F49AE09A95F1F7A1
:1017200000C0415051096109710981F79DE0909312
:10173000CE0304C088E08093CE0380E0DF91CF9198
:1017400008959E3F41F020E12093CE039093CD0376
:10175000DF91CF910895ED2FFC2F9F01205F3F4F28
:101760009FEF9EBD0DB407FEFDCF8EB58193E217AE
:10177000F307B9F78FEF8EBD0DB407FEFDCF8EB521
:101780008FEF8EBD0DB407FEFDCF8EB5289A8FEF7B
:101790008EBD0DB407FEFDCF81E0DF91CF9108959E
:1017A0000F931F93CF93DF93CDB7DEB760970FB63C
:1017B000F894DEBF0FBECDBFBE016F5F7F4F89E0E3
:1017C0000E94760B882309F447C08981807CA1F0B0
:1017D000803409F445C087E08093CE0360E070E078
:1017E000CB0160960FB6F894DEBF0FBECDBFDF9180
:1017F000CF911F910F9108956F81637070E0762FE4
:101800006627770F770F888590E0880F991F880FDC
:10181000991F682B792B898582958695869583708B
:10182000682B6F5F7F4F90E080E02A852370220F46
:101830003B8537FB332730F9232B3E813F70230F45
:101840003327331F2750310904C0660F771F881FC5
:10185000991F2A95D2F7C5CF60E070E0CB01C1CFC8
:1018600068856695669570E090E080E0CB0177270B
:1018700066272A85622B098510E0102F0027012E8C
:10188000000C220B330B602B712B822B932B6F5F81
:101890007F4F8F4F9F4F4AE0660F771F881F991F1A
:1018A0004A95D1F79ECF4F925F926F927F928F921F
:1018B0009F92AF92BF92CF92DF92EF92FF92CF931F
:1018C000C12CD12C7601CFEF28EE422E23E0522EF0
:1018D000612C712C4C01B12CA12CCEBD0DB407FE96
:1018E000FDCF9EB59F3FB1F08FEFC81AD80AE80A26
:1018F000F80A8AE08A95F1F700C0C701B601A30192
:1019000092010E94DB1782169306A406B50628F7FB
:1019100080E001C081E0CF91FF90EF90DF90CF9009
:10192000BF90AF909F908F907F906F905F904F90FF
:10193000089588EC97E9A4E0B0E03FEF3EBD0DB418
:1019400007FEFDCF2EB52F3F69F42AE02A95F1F767
:1019500000C00197A109B10989F78DE08093CE03FA
:1019600080E008952E3F39F080E18093CE032093EC
:10197000CD0380E0089581E00895BC0189E00C94D6
:10198000760BBC018AE00C94760BFC01F395118276
:101990001082EE5FFE4F11821082329623E0208388
:1019A0008B5F9D4F21E0FC0120830895CF93DF934F
:1019B000DC01B3952D913C911197EC01CC5FDD4F8B
:1019C00048814330A8F02F3F310579F070F021E0D5
:1019D0002883FC01EB5FFD4F22E020831D921C92C7
:1019E0008E5F9D4FFC0111821082DF91CF9108958F
:1019F0002F3F3105D1F3C8F39C012E5F3D4FF90114
:101A0000408151814F3F510581F378F333968081B6
:101A1000813061F081E0808382E088831D921C9296
:101A2000F90111821082DF91CF91089592E09083A5
:101A30008883F4CFCF93DF93EC01D395E881F981CC
:101A4000DC01AB5FBD4F4C91EF3FF105A1F098F089
:101A5000413061F0DC01AE5FBD4F2D913C9111979B
:101A60002F3F3105A1F098F04230B1F50E94D60C1D
:101A70008FEF9FEF1CC0DC01AE5FBD4F2D913C91FD
:101A800011972F3F310509F0A8F44130B9F04230E9
:101A900019F5FC01E20FF31FEE5FFE4F60832F5F2D
:101AA0003F4F2D933C930E94D60C81E090E0DF9154
:101AB000CF9108954230D1F2413071F4DC01AE0F84
:101AC000BF1F6C933196F983E8830E94D60C81E0A6
:101AD00090E0DF91CF9108958FEF9FEFE8CFCF9304
:101AE000DF93EC01D395E881F981DC01AC5FBD4F58
:101AF0004C91EF3FF10519F010F0413041F1DC015C
:101B0000AE5FBD4F2D913C9111972F3F310509F0EC
:101B1000E0F44330E0F44130F9F0423079F5280F39
:101B2000391FF901EE5FFE4F2081FB0120832D91CB
:101B30003C9111972F5F3F4F2D933C930E94D60C01
:101B400081E090E0DF91CF910895423011F70E943B
:101B5000D60C8FEF9FEFF6CFE80FF91F2081FB0126
:101B60002083288139812F5F3F4F398328830E944A
:101B7000D60C81E090E0DF91CF9108958FEF9FEF39
:101B8000E1CFCF92DF92EF92FF920F931F93CF930B
:101B9000DF93EA016B017C01CC0CDD1CEE1CFF1C09
:101BA00000E012E09A0150E040E0C701B6010E9457
:101BB000580B9E013E5FC701B6016F5F7F4F8F4F8D
:101BC0009F4F50E040E00E94580BDF91CF911F9152
:101BD0000F91FF90EF90DF90CF900895CF92DF921A
:101BE000EF92FF920F931F93CF93DF93CDB7DEB7A2
:101BF000D4500FB6F894DEBF0FBECDBF69017A0195
:101C0000AE014F5F5F4F0E94C10D90E080E0E1E0C8
:101C1000F0E0EC0FFD1FE80FF91F40815181628158
:101C200073814C155D056E057F05E1F024813581DA
:101C3000820F931F8F3FF3E09F0748F340E050E08F
:101C4000BA01CB01BA01DC5F0FB6F894DEBF0FBE5C
:101C5000CDBFDF91CF911F910F91FF90EF90DF905B
:101C6000CF900895268137812115310551F038969E
:101C7000D801200F311F81918D93A217B307D9F797
:101C80008D01F8011082DDCF0F931F93FA01660FCB
:101C9000771F881F991F213042E0340760F06F5F83
:101CA0007F4F8F4F9F4FA90151709F010E94580B8A
:101CB0001F910F91089550E040E09F010E94580B42
:101CC0001F910F9108952F923F924F925F926F92C2
:101CD0007F928F929F92AF92BF92CF92DF92EF92BC
:101CE000FF920F931F93CF93DF9300D01F92CDB736
:101CF000DEB79C838B831B010E944A172B013C019A
:101D00000E9453174B015C010E944A179B01AC01D2
:101D10006B817C8161507109072E000C880B990B37
:101D20000E94DB176B017C01CB01837099279C011A
:101D30003695322F2227379527953A8329832B8191
:101D40003C81B901330F880B990BA30192010E94CA
:101D5000DB17CA01B9010E9446180E9417189B019F
:101D6000AC01C501B4010E94A3174B015C0135E031
:101D7000830E911CA11CB11C880C991CAA1CBB1CB5
:101D8000C701B6019695879577956795969587953E
:101D9000779567950E9446180E941718680D791D5F
:101DA0008A1D9B1D00E810E0910149815A810E9423
:101DB000580B0F900F900F900F90DF91CF911F91C4
:101DC0000F91FF90EF90DF90CF90BF90AF909F90DA
:101DD0008F907F906F905F904F903F902F900895DD
:101DE0002F923F924F925F926F927F928F929F922B
:101DF000AF92BF92CF92DF92EF92FF920F931F9319
:101E0000CF93DF93CDB7DEB7C250D1400FB6F89471
:101E1000DEBF0FBECDBF4B015C011A01BE016F5783
:101E20007F4F82E090E00E94630E4D8C5E8C6F8C41
:101E300078A076946794579447948DE0481651049F
:101E40006104710408F04EC041145104610471042E
:101E500079F1FE01B996CF5FDE4FF983E883C15077
:101E6000D140C12CD12C76010AC0FFEFCF1ADF0A76
:101E7000EF0AFF0AC414D504E604F704C8F4CF5FE0
:101E8000DE4FE881F981C150D1406191719181911A
:101E90009191CF5FDE4FF983E883C150D14081013A
:101EA000A50194010E94EE0D672B682B692BE9F2C6
:101EB000CE5FDE4F0FB6F894DEBF0FBECDBFDF9111
:101EC000CF911F910F91FF90EF90DF90CF90BF9037
:101ED000AF909F908F907F906F905F904F903F90CA
:101EE0002F9008958BE0482E512C612C712CB1CF8E
:101EF0000F931F93CF93DF93CDB7DEB7C058D109AF
:101F00000FB6F894DEBF0FBECDBF8A01AE014F5FA2
:101F10005F4F0E94630E8D819E81AF81B885F8016D
:101F200080839183A283B383C058DF4F0FB6F894A8
:101F3000DEBF0FBECDBFDF91CF911F910F910895EE
:101F40004F925F926F927F92AF92BF92CF92DF9249
:101F5000EF92FF920F931F93CF93DF93CDB7DEB72E
:101F6000C058D8400FB6F894DEBF0FBECDBF2901D0
:101F70003A015801AE014F5F574F0E94630E730143
:101F80006201EAE0F694E794D794C794EA95D1F712
:101F9000820113702CE0C216D104E104F104F0F5C3
:101FA000F6013A96EE0FFF1FEE0FFF1F81E098E05B
:101FB0008C0F9D1FE80FF91F6081718182819381D1
:101FC000660F771F881F991F660F771F881F991F3D
:101FD00050E040E00130124030F06F5F7F4F8F4F94
:101FE0009F4FA201517001E010E095010E94580B33
:101FF000C058D74F0FB6F894DEBF0FBECDBFDF91EC
:10200000CF911F910F91FF90EF90DF90CF90BF90F5
:10201000AF907F906F905F904F9008959CE0C916AD
:1020200091E0D906E104F10410F5C75AD74F688151
:1020300079818A819B81C955D840AE014F5F5F4F3E
:102040000E94C10DECE0CE1AD108E108F108F601BA
:10205000EE0FFF1FEE0FFF1F81E090E08C0F9D1F22
:10206000E80FF91F6081718182819381A9CF9CE083
:10207000C91A91E0D90AE108F108C35AD74F68811B
:1020800079818A819B81CD55D840AE014F5F5B4FEE
:102090000E94C10DBB27AF2D9E2D8D2DFC01EE0F93
:1020A000FF1FEE0FFF1F81E094E08C0F9D1FE80FD4
:1020B000F91F6081718182819381AE014F5F5F4F13
:1020C0000E94C10DDD24EE24FF24CC0CDD1CCC0CC1
:1020D000DD1CE1E0F0E0EC0FFD1FCE0EDF1EF6018F
:1020E00060817181828193816BCFFC0180819181BC
:1020F0008827907F0895811520EC9207D9F08115EB
:1021000020EA9207A9F0811520E89207B9F081151D
:1021100020E69207A9F0811520E4920769F0811565
:1021200020E2920779F08115904171F088E50895D9
:102130008CE4089583E5089584E4089586E4089581
:1021400082E4089583E4089581E50895FC012081E7
:1021500031812227307F81E090E02115304411F059
:1021600090E080E00895FC01208131812227307FBA
:1021700081E090E02115304811F090E080E0089572
:10218000CF93DF93CDB7DEB7D4500FB6F894DEBF50
:102190000FBECDBFAE014F5F5F4F61E070E080E0EA
:1021A00090E00E94C10D6D817E818F8198850E9493
:1021B000261769817A818B819C810E942F1769A5DE
:1021C0007AA58BA59CA50E94381769A17AA18BA13D
:1021D0009CA10E944117DC5F0FB6F894DEBF0FBED2
:1021E000CDBFDF91CF910895DF92EF92FF920F93D1
:1021F0001F93CF93DF93CDB7DEB7C058D1090FB689
:10220000F894DEBF0FBECDBF8C01FC01E680F780E5
:10221000F5E6EF16F10418F084E6E82EF12CBE0185
:102220006F5F7F4FF801808191810E94630EEE20E5
:1022300071F0D8011896EFE0F3E2EA948E2D90E069
:10224000805F9C4D2D912193E817F907D9F78D8177
:102250009E81AF81B8858093852490938624A09336
:102260008724B0938824C058DF4F0FB6F894DEBFA0
:102270000FBECDBFDF91CF911F910F91FF90EF90D7
:10228000DF900895EF92FF920F931F93CF93DF9308
:102290004115510561057105C1F0EC01440F551F51
:1022A0007E01E40EF51E09E513E0888199812296EE
:1022B0009F938F931F930F930E94FB190F900F9082
:1022C0000F900F90EC16FD0681F7DF91CF911F91D3
:1022D0000F91FF90EF9008954F925F926F927F92CF
:1022E0008F929F92AF92BF92CF92DF92EF92FF9226
:1022F0000F931F93CF93DF93CDB7DEB7D4500FB6B4
:10230000F894DEBF0FBECDBF29013A016701780105
:10231000AE014F5F5F4F0E94C10D46015801841806
:102320009508A608B70881E0881684E09806A104FD
:10233000B10428F0812C84E0982EA12CB12CC41477
:10234000D504E604F704B1F08E010F5F1F4FC12CD6
:10235000D12C7601F80181918F0190E00E940F1A33
:10236000FFEFCF1ADF0AEF0AFF0AC814D904EA0404
:10237000FB0480F3DC5F0FB6F894DEBF0FBECDBF69
:10238000DF91CF911F910F91FF90EF90DF90CF9051
:10239000BF90AF909F908F907F906F905F904F9085
:1023A00008952F923F924F925F926F927F928F92F9
:1023B0009F92AF92BF92CF92DF92EF92FF920F93D4
:1023C0001F93CF93DF93CDB7DEB7C459DC400FB670
:1023D000F894DEBF0FBECDBFCB01BE016F5F734F60
:1023E0000E94630ECF5FD34F88819981C150DC403A
:1023F0008827907F8115904409F4EEC1C35ED34FC6
:1024000088819981AA81BB81CD51DC409C01AD01BD
:102410005695479537952795CB57D34F28833983C2
:102420004A835B83C558DC40C757D34F2883398321
:102430004A835B83C958DC402D3031054105510585
:1024400008F04DC1CB5FD34F488059806A807B80B4
:10245000C550DC40CB57D34F288139814A815B81FD
:10246000C558DC402D3081E038074105510508F49E
:1024700084C080E091E0A0E0B0E0CB57D34F8883E8
:102480009983AA83BB83C558DC40C357D34F1882B6
:1024900019821A821B82CD58DC40CC24C3942CE0D4
:1024A000D22ECC0EDD1E98E2C90ED11C812C912CAF
:1024B0005401CF56D34F188219821A821B82C159F8
:1024C000DC40CF57D34F488259826A827B82C15801
:1024D000DC40212C312C210113C03FEF231A330A99
:1024E000430A530AC757D34F88819981AA81BB8178
:1024F000C958DC40281639064A065B0608F0FCC0BD
:10250000D6016D917D918D919D916D01CF57D34FE6
:10251000E880F9800A811B81C158DC40A501940143
:102520000E946C11B4E09B0EA11CB11CCF57D34F7D
:10253000288139814A815B81C158DC40821693062B
:10254000A406B50650F2CC56D34F0FB6F894DEBFB2
:102550000FBECDBFDF91CF911F910F91FF90EF90F4
:10256000DF90CF90BF90AF909F908F907F906F90B3
:102570005F904F903F902F9008952D303105410589
:10258000510508F03AC1C357D34F288339834A8392
:102590005B83CD58DC40CB57D34F288139814A81AA
:1025A0005B81C558DC40232B242B252B09F075CFEC
:1025B000C75AD34F688179818A819B81C955DC4094
:1025C000AE014F5F574F0E94C10D812C912C5401D9
:1025D000C35AD34F688179818A819B81CD55DC4074
:1025E000AE014F5F5B4F0E94C10DC357D34F28818F
:1025F00039814A815B81CD58DC40232B242B252B4C
:1026000009F4A1CFAE014F5F5F4F1A01CC24CA94E9
:10261000DC2CCF57D34F188219821A821B82C158E3
:10262000DC4038C0F10161917191819191911F015C
:1026300083017201A50194010E946C11F4E09F0EC8
:10264000A11CB11C84149504A604B70408F07BCF28
:10265000CF57D34F288139814A815B81C158DC40F3
:102660002F5F3F4F4F4F5F4FCF57D34F2883398353
:102670004A835B83C158DC40C357D34F888199811B
:10268000AA81BB81CD58DC4082179307A407B50708
:1026900009F459CFCF57D34F88819981AA81BB8143
:1026A000C158DC40892B8A2B8B2B09F0BBCF9FEFC5
:1026B000C91AD90AF601EE0FFF1FEE0FFF1FA1E0A6
:1026C000B4E0AC0FBD1FEA0FFB1F608171818281F6
:1026D0009381AE014F5F5F4F0E94C10DA3CF8CE08D
:1026E00090E0A0E0B0E0C757D34F88839983AA83D6
:1026F000BB83C958DC40A6CECF57D34F4880598002
:102700006A807B80C158DC40C75AD34F6881798189
:102710008A819B81C955DC40AE014F5F574F0E94B3
:10272000C10DCB57D34F288139814A815B81C55870
:10273000DC40232B242B252B09F44ACFAE014F5F1D
:10274000574F6A01C757D34F188219821A821B82CA
:10275000C958DC40CF57D34F488259826A827B8266
:10276000C158DC40212C312C210112C03FEF231A2B
:10277000330A430A530ACB57D34F88819981AA81E0
:10278000BB81C558DC40281639064A065B0660F551
:10279000D6016D917D918D919D916D01CF57D34F54
:1027A000E880F9800A811B81C158DC40A5019401B1
:1027B0000E946C11B4E09B0EA11CB11CCF57D34FEB
:1027C000288139814A815B81C158DC408216930699
:1027D000A406B50658F2B7CE8CE593E00E94151A10
:1027E00090E080E00E94E61CCF57D34F488059808C
:1027F0006A807B80C158DC40EBCEC357D34F188230
:1028000019821A821B82CD58DC40C5CECF92DF924E
:10281000EF92FF920F931F93CF93DF93CDB7DEB765
:10282000D4500FB6F894DEBF0FBECDBF7A01890138
:10283000AE014F5F5F4F0E94C10DF8018081918111
:10284000A281B38130E020E0CC24C394D12CCC0E03
:10285000DD1EC20ED31E880F991F880F991FD70146
:10286000A80FB91FF60140815181628173814D9398
:102870005D936D937C931397F80180819181A28180
:10288000B3810196A11DB11D80839183A283B3837F
:10289000F60144815581240F351F2F3FF3E03F0798
:1028A00098F2DC5F0FB6F894DEBF0FBECDBFDF91AC
:1028B000CF911F910F91FF90EF90DF90CF900895EF
:1028C0002F923F924F925F926F927F928F929F9240
:1028D000AF92BF92CF92DF92EF92FF920F931F932E
:1028E000CF93DF93CDB7DEB7C458D1090FB6F894B4
:1028F000DEBF0FBECDBF1C014B01BE016F5F7F4F1E
:1029000082E090E00E94630E89819A818827907FFF
:102910008115904409F06BC04D8C5E8C6F8C78A053
:1029200076946794579447948DE048165104610457
:10293000710408F44CC05E01E1E8AE0EB11CF50173
:1029400010821182128213828BE0482E512C612C4E
:10295000712C8E01075D1F4FC12CD12C7601F8011F
:1029600061917191819191918F019501A4010E94D2
:102970000614FFEFCF1ADF0AEF0AFF0AC414D504CA
:10298000E604F70460F3F5014080518062807380B3
:10299000F1014082518262827382CC57DF4F0FB6C1
:1029A000F894DEBF0FBECDBFDF91CF911F910F9185
:1029B000FF90EF90DF90CF90BF90AF909F908F905F
:1029C0007F906F905F904F903F902F9008955E01A1
:1029D000F1E8AF0EB11CF501108211821282138250
:1029E000411451046104710409F0B3CFD1CF90E0D8
:1029F00080E00E94E61C2F923F924F925F926F926E
:102A00007F928F929F92AF92BF92CF92DF92EF927E
:102A1000FF920F931F93CF93DF93CDB7DEB7C059CB
:102A2000DC400FB6F894DEBF0FBECDBFCB01BE01B8
:102A30006F5F734F0E94630ECF5FD34F8881998180
:102A4000C150DC408827907F8115904409F0EEC08A
:102A5000C35ED34F88819981AA81BB81CD51DC406F
:102A60009C01AD015695479537952795CB57D34F88
:102A7000288339834A835B83C558DC402D30310578
:102A80004105510508F4A2C0CB57D34F88819981E5
:102A9000AA81BB81C558DC404E018D309140A10513
:102AA000B10508F4A6C1FFE78F1AF3EF9F0AD4011E
:102AB0001D921D921D921C92139788E292E00E9433
:102AC000C8185C0120E031E040E050E0C757D34F28
:102AD000288339834A835B83C958DC401BE0412E3D
:102AE000512C612C712CC357D34F188219821A8232
:102AF0001B82CD58DC4001E01CE00C0F1D1F085D5F
:102B00001F4FC12CD12C7601D8016D917D918D91F3
:102B10009D918D019401A5010E940614BFEFCB1A6F
:102B2000DB0AEB0AFB0AC414D504E604F70460F3DD
:102B3000CB57D34F288139814A815B81C558DC400E
:102B40002D3031054105510508F078C0F401808130
:102B50009181A281B3810097A105B105E9F08501BA
:102B6000880F991F6501C80ED91EA9E5EA2EA3E0BA
:102B7000FA2ED8018C9111969C910E5F1F4F9F9356
:102B80008F93FF92EF920E94FB190F900F900F907E
:102B90000F90C016D10669F7C057D34F0FB6F894FF
:102BA000DEBF0FBECDBFDF91CF911F910F91FF9080
:102BB000EF90DF90CF90BF90AF909F908F907F90DD
:102BC0006F905F904F903F902F9008954E013FE798
:102BD000831A33EF930AD4011D921D921D921C9209
:102BE000139788E292E00E94C8185C01CB57D34F3C
:102BF000288139814A815B81C558DC402115310526
:102C00004105510549F2C757D34F288339834A8379
:102C10005B83C958DC4029013A01C357D34F48822E
:102C200059826A827B82CD58DC4065CF8AE893E086
:102C30000E94151A90E080E00E94E61CC75AD34F0C
:102C4000688179818A819B81C955DC40AE014F5FE3
:102C5000574F0E94C10D8E010F5F174FC757D34FBB
:102C6000E880F980C958DC40EE0CFF1CEE0CFF1C1C
:102C7000E00EF11EF80161917191819191918F01A6
:102C80009401A5010E940614E016F10699F7CB57AE
:102C9000D34F288139814A815B81C558DC402D3072
:102CA00081E038074105510528F58501812C912CDB
:102CB000540179E5E72E73E0F72E29013A01D80196
:102CC0008C9111969C910E5F1F4F9F938F93FF9253
:102CD000EF920E94FB19BFEF8B1A9B0AAB0ABB0A4B
:102CE0000F900F900F900F9084149504A604B704D2
:102CF00030F352CFC35AD34F688179818A819B8147
:102D0000CD55DC40AE014F5F5B4F0E94C10DC357F4
:102D1000D34F288139814A815B81CD58DC40211510
:102D200031054105510509F442C08E010F5F1F4F67
:102D3000EE24EA94FE2C412C512C32013A2C2B2CFF
:102D400059016A0115C0D8016D917D918D919D91B8
:102D50008D019401432D522D0E940614BFEF4B1A92
:102D60005B0A6B0A7B0AA414B504C604D704E9F015
:102D7000411451046104710431F73FEFE31AF30A7F
:102D8000F701EE0FFF1FEE0FFF1F41E054E04C0F65
:102D90005D1FE40FF51F6081718182819381AE0117
:102DA0004F5F5F4F0E94C10DCECFA32CB22C850187
:102DB000CB57D34FE880F980C558DC40EE0CFF1CA0
:102DC000EA0CFB1C99E5C92E93E0D92EF80180810D
:102DD00091810E5F1F4F9F938F93DF92CF920E943E
:102DE000FB190F900F900F900F900E151F0571F7A4
:102DF000D3CE3FE7831A33EF930AD4011D921D927D
:102E00001D921C92139788E292E00E94C8185C0100
:102E1000CB57D34F288139814A815B81C558DC402B
:102E2000C757D34F288339834A835B83C958DC4013
:102E3000BBE04B2E512C612C712CC357D34F188201
:102E400019821A821B82CD58DC4055CE6093992698
:102E500070939A2680939B2690939C260895609366
:102E6000A5267093A6268093A7269093A82608955A
:102E70006093A1267093A2268093A3269093A42604
:102E8000089560939D2670939E2680939F2690932D
:102E9000A02608956091A1267091A2268091A32674
:102EA0009091A426089560919D2670919E26809110
:102EB0009F269091A02608956091A5267091A62640
:102EC0008091A7269091A8260895609199267091E7
:102ED0009A2680919B2690919C26089590939826FF
:102EE00080939726089510928F260E94020281E017
:102EF0000E948A0A0E9456030E9454088DE093E0C3
:102F00000E947F0324EF31E050E040E062EB76E086
:102F100082E193E00E94220224EF31E050E040E0A1
:102F200067EB76E087E193E00E9422028DE193E077
:102F30000E947F030E941A0183E293E00E947F03B4
:102F40000E948B02FFCFDB018F939F930E94FD179E
:102F5000BF91AF91A29F800D911DA39F900DB29F35
:102F6000900D11240895AA1BBB1B51E107C0AA1F95
:102F7000BB1FA617B70710F0A61BB70B881F991F1A
:102F80005A95A9F780959095BC01CD01089597FBBE
:102F9000072E16F4009407D077FD09D00E94B317CE
:102FA00007FC05D03EF4909581959F4F089570954C
:102FB00061957F4F0895A1E21A2EAA1BBB1BFD014C
:102FC0000DC0AA1FBB1FEE1FFF1FA217B307E40708
:102FD000F50720F0A21BB30BE40BF50B661F771F60
:102FE000881F991F1A9469F7609570958095909540
:102FF0009B01AC01BD01CF0108950E940818A59F57
:10300000900DB49F900DA49F800D911D11240895E3
:10301000A29FB001B39FC001A39F700D811D112419
:10302000911DB29F700D811D1124911D08950E9464
:103030008B1888F09F5798F0B92F9927B751B0F0A7
:10304000E1F0660F771F881F991F1AF0BA95C9F72C
:1030500014C0B13091F00E94A518B1E008950C940D
:10306000A518672F782F8827B85F39F0B93FCCF3C0
:10307000869577956795B395D9F73EF490958095A9
:10308000709561957F4F8F4F9F4F0895E89409C0C9
:1030900097FB3EF490958095709561957F4F8F4F8B
:1030A0009F4F9923A9F0F92F96E9BB279395F695A1
:1030B000879577956795B795F111F8CFFAF4BB0F1F
:1030C00011F460FF1BC06F5F7F4F8F4F9F4F16C083
:1030D000882311F096E911C0772321F09EE8872F0D
:1030E000762F05C0662371F096E8862F70E060E0C9
:1030F0002AF09A95660F771F881FDAF7880F969542
:10310000879597F9089557FD9058440F551F59F02A
:103110005F3F71F04795880F97FB991F61F09F3FC4
:1031200079F087950895121613061406551FF2CFED
:103130004695F1DF08C0161617061806991FF1CF3D
:1031400086957105610508940895E894BB27662764
:103150007727CB0197F908950F931F93CF93DF93B0
:10316000869F8001879F100D969F100D1124C80126
:103170000E94C818EC01009729F0A80170E060E0F7
:103180000E94ED19CE01DF91CF911F910F9108950B
:103190000F931F93CF93DF938230910510F482E059
:1031A00090E0E091AB26F091AC2630E020E0B0E07A
:1031B000A0E0309799F42115310509F44AC0281B85
:1031C000390B24303105D8F58A819B816115710551
:1031D00089F1FB0193838283FE0111C040815181FB
:1031E0000281138148175907E0F04817590799F4ED
:1031F000109761F012960C93129713961C933296C7
:10320000CF01DF91CF911F910F9108950093AB26CD
:103210001093AC26F4CF2115310551F04217530716
:1032200038F0A901DB019A01BD01DF01F801C1CF2E
:10323000EF01F9CF9093AC268093AB26CDCFFE0162
:10324000E20FF31F81939193225031093983288330
:10325000D7CF2091A9263091AA26232B41F4209183
:103260000202309103023093AA262093A9262091CE
:103270000002309101022115310541F42DB73EB70E
:103280004091040250910502241B350BE091A926C0
:10329000F091AA26E217F307A0F42E1B3F0B281784
:1032A000390778F0AC014E5F5F4F2417350748F0BF
:1032B0004E0F5F1F5093AA264093A92681939193A6
:1032C0009FCFF0E0E0E09CCFCF93DF930097E9F051
:1032D000FC01329713821282A091AB26B091AC26EA
:1032E000ED0130E020E01097A1F420813181820FC0
:1032F000931F2091A9263091AA262817390709F093
:1033000061C0F093AA26E093A926DF91CF9108959A
:10331000EA01CE17DF07E8F54A815B819E0141157E
:103320005105B1F7E901FB83EA8349915991C40F33
:10333000D51FEC17FD0761F4808191810296840FFF
:10334000951FE90199838883828193819B838A8376
:10335000F0E0E0E012968D919C9113970097B9F5FB
:103360002D913C911197CD010296820F931F2091D0
:10337000A9263091AA262817390739F6309751F532
:103380001092AC261092AB26B093AA26A093A92641
:10339000BCCFD383C28340815181840F951FC8174E
:1033A000D90761F44E5F5F4F88819981480F591F9B
:1033B000518340838A819B819383828321153105C8
:1033C00009F0B0CFF093AC26E093AB269ECFFD0181
:1033D000DC01C0CF13821282D7CFDC0101C06D9314
:1033E00041505040E0F70895FB01DC0101900D923F
:1033F0000020E1F70895CF93DF93CDB7DEB7AE019C
:103400004A5F5F4FFA0161917191AF018091AF26E0
:103410009091B0260E94401ADF91CF91089560915B
:10342000AF267091B0260C94581C0F931F93CF9326
:10343000DF93E091AF26F091B0262381EC0110E0FC
:1034400000E021FD08C00FEF1FEF14C01995892B74
:1034500011F00FEF1FEF89916091AF267091B026A8
:10346000DB011896ED91FC918111F0CF8AE019955E
:10347000892B49F7C801DF91CF911F910F910895D2
:103480002F923F924F925F926F927F928F929F9274
:10349000AF92BF92CF92DF92EF92FF920F931F9362
:1034A000CF93DF9300D000D000D01F921F92CDB7F2
:1034B000DEB77C013B018A01FC0117821682838101
:1034C00081FFDDC1CE0101965C01F7019381F3011B
:1034D00093FD859193FF81913F01882309F453C1A6
:1034E000853239F493FD859193FF81913F018532B7
:1034F00029F4B70190E00E94581CE7CF912C212CB1
:10350000312CFFE1F31538F08B3211F190F4803259
:1035100009F1833229F137FC3CC020ED280F2A3015
:1035200050F536FE20C08AE0989E200D1124922E80
:1035300006C08D3291F0803371F7689430F8F30152
:1035400093FD859193FF81913F018111DACF21C0D5
:10355000689431F8689432F8F2CF689433F8EFCF7A
:10356000689434F8ECCFEAE02E9E200D1124222E30
:10357000689435F8E4CF8E3229F436FC04C168949F
:1035800036F8DDCF8C3619F4689437F8D8CF883602
:10359000B1F2982F9F7D95549330E0F08336A1F1DE
:1035A0008337C1F1833509F063C02801F2E04F0E83
:1035B000511CF801C080D180692D70E036FC02C03A
:1035C0006FEF7FEFC6010E94421C4C01689437F8F0
:1035D00082010AC00C5F1F4FFFE3F98388248394A4
:1035E000912C6501E89437F833FE2DC0522C8114DC
:1035F000910471F5552009F468CFB70180E290E09D
:103600000E94581C5A94F6CFF801808189830E5F7E
:103610001F4FE4CF2801F2E04F0E511CF801C0808B
:10362000D180692D70E036FC02C06FEF7FEFC601DC
:103630000E944D1C4C018201D5CFB70180E290E081
:103640000E94581C2A942814190409F0B0F7CECF10
:10365000F60137FC859137FE81916F01B70190E04B
:103660000E94581C51105A94F1E08F1A9108BFCF54
:10367000843619F0893609F077C0F80137FE6BC03F
:1036800060817181828193810C5F1F4FF32DFF76E2
:103690003F2E97FF09C090958095709561957F4F5B
:1036A0008F4F9F4F689437F82AE030E0A5010E94C1
:1036B000881CC82ECA188C2C432C36FE0CC0E894EB
:1036C00040F8C91440F434FE05C032FC03C0F32DA9
:1036D000FE7E4F2E892C44FEAAC0FE01EC0DF11D8A
:1036E0008081803309F09CC0242D297E422E842DB8
:1036F0008870582E43FCAAC040FEA4C09C2C8214A3
:1037000018F42C0C922C981844FEA6C0B70180E344
:1037100090E00E94581C42FE09C088E790E041FEFC
:1037200002C088E590E0B7010E94581CC91408F453
:103730009FC0CA94D12C9FEFC91AD90ACA0CDB1CAE
:10374000F60182916F01B70190E00E94581CAC1401
:10375000BD04B1F74FCF60817181072E000C880B3B
:10376000990B0E5F1F4F92CFD32CE894D4F82AE028
:1037700030E08537E1F1232D297FD22E8F36A9F154
:10378000F0F4883551F1F701868197812B960FB6B9
:10379000F894DEBF0FBECDBFDF91CF911F910F9187
:1037A000FF90EF90DF90CF90BF90AF909F908F9061
:1037B0007F906F905F904F903F902F90089580374B
:1037C00049F0883701F7D4FE02C06894D2F820E1AE
:1037D00030E00DC06894D4F8F6CF34FE03C0822FD9
:1037E0008660D82E20E132E002C028E030E0F80107
:1037F000D7FE0FC060817181828193810C5F1F4F62
:10380000A5010E94881CC82ECA183D2CE89437F8E0
:1038100052CF6081718190E080E00E5F1F4FF0CF4A
:1038200042FC02C0839463CF8394839460CF842D41
:10383000867809F45CCFF6CFB70180E290E00E9471
:10384000581C83948214C0F3512C5ECF522C58180C
:10385000821408F459CFF8CF842D867809F466CF06
:103860008BE241FE80E247FC8DE2B70190E05CCF45
:10387000B70180E390E00E94581C9A9457CF8FEFD5
:103880009FEF84CFFC010590615070400110D8F784
:10389000809590958E0F9F1F0895FC016150704098
:1038A00001900110D8F7809590958E0F9F1F089575
:1038B0000F931F93CF93DF93182F092FEB018B8169
:1038C00081FD09C01FEF0FEF812F902FDF91CF9166
:1038D0001F910F91089582FF14C02E813F818C812A
:1038E0009D81281739073CF4E881F981CF010196C1
:1038F0009983888310838E819F8101969F838E8315
:10390000E3CFE885F985812F1995892BA1F3DACFCB
:10391000FA01AA27283051F1203181F1E8946F9300
:103920006E7F6E5F7F4F8F4F9F4FAF4FB1E03ED0A6
:10393000B4E03CD0670F781F891F9A1FA11D680F44
:10394000791F8A1F911DA11D6A0F711D811D911D77
:10395000A11D20D009F468943F912AE0269F1124EC
:103960003019305D3193DEF6CF010895462F477050
:10397000405D4193B3E00FD0C9F7F6CF462F4F70AB
:10398000405D4A3318F0495D31FD4052419302D009
:10399000A9F7EACFB4E0A6959795879577956795AF
:1039A000BA95C9F700976105710508959B01AC01AF
:1039B0000A2E06945795479537952795BA95C9F7D6
:1039C000620F731F841F951FA01D0895F894FFCFE9
:1039D0000000B32620005A0053797374656D20549B
:1039E000696D653A2000496E746572727570747302
:1039F0002F5365633A20004E756D626572206F66C5
:103A000020546872656164733A2000437572726570
:103A10006E74205468726561642049443A200054F1
:103A200068726561642000546872656164204E614B
:103A30006D653A2000546872656164205374617446
:103A400075733A20005448524541445F5245414401
:103A500059005448524541445F57414954494E47E3
:103A6000005448524541445F52554E4E494E47001E
:103A70005448524541445F534C454550494E4700D8
:103A800043616C6C732F5365633A200046756E6317
:103A900074696F6E616C2041646472657373202871
:103AA0005043293A2000537461636B20557361675A
:103AB000653A2000537461636B2053697A653A203C
:103AC00000537461636B20506F696E7465723A20A5
:103AD00000537461636B3A2000202D20004845524A
:103AE000450069646C6500737461747300484552E5
:103AF000453200484552453300536F6E67204E6192
:103B00006D653A20005365636F6E647320496E3AA9
:103B1000200020202000546F74616C204475726175
:103B200074696F6E3A2000580025730043616E6E11
:103B30006F74207072696E7420746869732C2062CF
:103B40006563617573652069742069732061206401
:103B500069726563746F7279210043616E6E6F7470
:103B6000207072696E742066696C65732077697461
:103B700068696E20746869732C206265636175736F
:103B800065206974206973206E6F742061206469F8
:0A3B9000726563746F727921000002
:00000001FF
